:020000040800F2
:10000000A0FD0120F1020008CB4F000831100008CC
:10001000C94F000883090008515B00080000000078
:10002000000000000000000000000000390200088D
:10003000A90B0008000000008D02000835540008DC
:100040000B0300080B0300080B0300080B03000858
:100050000B0300080B0300080B0300080B03000848
:100060000B0300080B0300080B0300080B03000838
:100070000B0300080B0300080B0300080B03000828
:100080000B0300080B0300080B0300080B03000818
:100090000B0300080B0300080B0300080B03000808
:1000A0000B0300080B0300080B0300080B030008F8
:1000B0000B030008A55400080B0300080B030008FD
:1000C0000B0300080B0300080B0300080B030008D8
:1000D0000B030008DD550008295600087556000876
:1000E0000B0300080B0300080B0300080B030008B8
:1000F0000B0300080B0300080B0300080B030008A8
:100100000B0300080B0300080B0300080B03000897
:100110000B0300080B0300080B0300080B03000887
:100120000B0300080B0300080B0300080B03000877
:100130000B030008D90B00080B0300080B03000891
:100140000B0300080B0300080B0300080B03000857
:100150000B0300080B0300080B0300080B03000847
:100160000B0300080B0300080B0300080B03000837
:100170000B0300080B0300080B0300080B03000827
:100180000B0300080B03000800F002F800F044F82D
:100190000AA090E8000C82448344AAF10107DA45E2
:1001A00001D100F039F8AFF2090EBAE80F0013F0F0
:1001B000010F18BFFB1A43F00103184734AE0000CB
:1001C00054AE0000103A24BF78C878C1FAD852075C
:1001D00024BF30C830C144BF04680C6070470000C1
:1001E0000023002400250026103A28BF78C1FBD840
:1001F000520728BF30C148BF0B607047642900F028
:100200000981732900F01383002070471FB508F09F
:10021000D5FC1FBD10B510BD00F06DFB1146FFF7FA
:10022000F5FF06F07DFA00F08BFB03B4FFF7F2FF59
:1002300003BC05F095FC00002A4B19680868B0E87B
:10024000F04F80F30988BFF36F8F4FF0000080F309
:10025000118870470000000006480068006880F3BD
:10026000088862B661B6BFF34F8FBFF36F8F00DFB0
:1002700000BF00BF08ED00E0DFF80C00016841F4AA
:1002800070010160704700BF88ED00E0EFF3098066
:10029000BFF36F8F134B1A681EF0100F08BF20EDCD
:1002A000108A20E9F04F106008B44FF0500080F33E
:1002B0001188BFF34F8FBFF36F8F07F0EFFC4FF044
:1002C000000080F3118808BC19680868B0E8F04F96
:1002D0001EF0100F08BFB0EC108A80F30988BFF33E
:1002E0006F8F704750000020EFF3058070470000CB
:1002F0000948804709480047FEE7FEE7FEE7FEE7BA
:10030000FEE7FEE7FEE7FEE7FEE7FEE704480549F5
:10031000054A064B7047000049540008890100084F
:10032000A0F70120A0FD0120A0F90120A0F90120E3
:10033000704700000FB4044910B503AA029800F0FA
:100340007BFA10BC5DF814FB300000200FB41CB524
:10035000074B06AA7B4469460090059800F03DFAD9
:100360000020694600F04CFA1CBC5DF814FB00004C
:10037000A904000070B5044685690068C10601D56E
:10038000302600E02026C00707D070BDD4E9012147
:1003900030469047206A401C20626D1EF6D570BD25
:1003A00070B5044685690078C00707D170BDD4E9EF
:1003B000012120209047206A401C20626D1EF6D546
:1003C00070BD70B50C460546012A05D02878800618
:1003D00000D5EA69002302E0012305E05B1C93429B
:1003E00002D2E05C0028F9D1A869E618C01AA86119
:1003F000286A184428622846FFF7BCFF04E0D5E9C4
:10040000012114F8010B9047B442F8D32846FFF7B6
:10041000C7FF70BD2DE9F04106460024106875291C
:10042000314616A510D0AFF30080002802DA404212
:1004300013A507E031688A0701D512A502E0490734
:1004400004D511A5012401E0AFF3008000210A22A8
:1004500006F1240709E0B0FBF2FCB0FBF2F302FB6B
:100460001C00303078541846491C0028F3D123462C
:100470002A463046BDE8F04100F051B900000000C6
:100480002D0000002B000000200000002DE9F05F8F
:10049000894604464FF0000ADFF824B1FB44C0F857
:1004A00020A02046E168884700287DD0252806D076
:1004B000D4E901219047206A401C2062F1E7002521
:1004C0005F462046E16888472028064607DB312E34
:1004D00005D2B81910F8200C08B10543F1E7A807B8
:1004E00001D525F00405C4F81CA00027C4F818A005
:1004F0002A2E09D0304605F02CFB38B304EB8708D0
:10050000303EC8F8186019E059F8041B204604EB87
:1005100087029161E1688847012F064618D1E0699A
:10052000002820DA25F020051DE0D8F8180000EB9F
:10053000800006EB40003038C8F818002046E1681B
:100540008847064605F005FB0028EED1012F0AD0AA
:100550002E2E08D12046E16888477F1C0646022FD0
:1005600045F02005C4DBA069002803DA404245F0CD
:100570000105A061E80701D025F01005A6B1A6F19C
:100580004100192802D8203645F400654A46314614
:10059000204625604D46FFF731FE60B1012807D0A7
:1005A000ED1D25F0070000E007E000F1080978E7FD
:1005B00005F1040975E730467AE7206ABDE8F09F47
:1005C000F4AA00000022CBB210F8011B994200D11E
:1005D000421E0029F8D11046704710B5431C02E0B6
:1005E00010F8011B71B18107FAD14FF0013202C836
:1005F0008C1A8C4314EAC211F9D0C01A0A0603D02F
:10060000C01E10BDC01A10BD0A0401D0801E10BD4E
:100610000902FCD0401E10BD032A40F2308010F0C9
:10062000030C00F0158011F8013BBCF1020F62448D
:1006300098BF11F801CB00F8013B38BF11F8013B1E
:10064000A2F1040298BF00F801CB38BF00F8013BCB
:1006500011F0030300F02580083AC0F0088051F83B
:10066000043B083A51F804CBA0E80810F5E7121D46
:100670005CBF51F8043B40F8043BAFF30080D20765
:1006800024BF11F8013B11F801CB48BF11F8012B31
:1006900024BF00F8013B00F801CB48BF00F8012B54
:1006A000704710B5203AC0F00B80B1E81850203ADE
:1006B000A0E81850B1E81850A0E81850BFF4F5AF02
:1006C0005FEA027C24BFB1E81850A0E8185044BF8C
:1006D00018C918C0BDE810405FEA827C24BF51F8F9
:1006E000043B40F8043B08BF7047D20728BF31F8ED
:1006F000023B48BF11F8012B28BF20F8023B48BF3E
:1007000000F8012B704702F0FF0343EA032242EA9C
:10071000024200F0A5B870477047704770472DE956
:10072000F0470D4699469246044600F124080168B8
:10073000880604D5E06921F01001216000E0012065
:10074000A84201DD471B00E00027A1697A1902EBEE
:100750000900081AA0612078C00602D42046FFF7DD
:1007600009FE002608E0D4E901211AF806009047A6
:10077000206A401C761C20624E45F4DB2078C006BF
:100780000AD52046FFF7F6FD06E0D4E90121302026
:100790009047206A401C2062381EA7F10107F4DC54
:1007A00007E0D4E9012118F805009047206A401CB1
:1007B0002062281EA5F10105F3DC2046FFF7F0FDBD
:1007C0002078000602D50220BDE8F0870120FBE773
:1007D00001694A1C02610878704700B58FB0CDE905
:1007E00001310021059105497944CDE903101146F5
:1007F0006846FFF74BFE0FB000BD0000E5FFFFFFAE
:100800000A6802F8010B0A60704710B5436913B11A
:10081000AFF3008001E0FFF7D4FD012010BD127896
:1008200000F124010A7000224A700122EDE71168EC
:100830004FF0FF32E9E70000074B70B50D467B44EF
:10084000FFF7CBFF0446284600F02AF810B14FF01E
:10085000FF3070BD204670BD1B5E00004FF00002EF
:100860000429C0F0128010F0030C00F01F80CCF1BE
:10087000040CBCF1020F18BF00F8012BA8BF20F830
:10088000022BA1EB0C0100F011B85FEAC17C24BF80
:1008900000F8012B00F8012B48BF00F8012B70472E
:1008A000007B00F0800070474FF0000200B5134657
:1008B00094469646203922BFA0E80C50A0E80C5080
:1008C000B1F12001BFF4F7AF090728BFA0E80C5031
:1008D00048BF0CC05DF804EB890028BF40F8042B2A
:1008E00008BF704748BF20F8022B11F0804F18BF97
:1008F00000F8012B7047754600F02CF8AE46050055
:100900006946534620F00700854618B020B5FFF72A
:10091000FDFCBDE820404FF000064FF000074FF00F
:1009200000084FF0000B21F00701AC46ACE8C0090D
:10093000ACE8C009ACE8C009ACE8C0098D46704716
:1009400010B50446AFF300802046BDE81040FFF725
:100950006CBC00000048704740F7012010B501460C
:1009600000206FF02F0406E000EB800004EB400055
:10097000104440B2491C0A78A2F13003092BF3D984
:1009800010BDFEE710B504F057FF002010BD10B5F4
:100990000C680221204604F098FC2044FFF7DEFF9B
:1009A000C0B206F0D5FC012010BD00002DE9F043D7
:1009B0008DB00025D1F8048000E0C5B205EB4500FC
:1009C00000EBC501681C18F831108142F5D01A22DD
:1009D0000021684604F0EFFA1A222449684604F020
:1009E00031FB684606F0B6FD0126E94636E006EB27
:1009F000460000EBC60108EBC1071D4917F83D0C86
:100A0000C978884228D8C00726D01A220021684613
:100A100004F0D1FAA7F157011A22684604F012FB3C
:100A200014A006F097FD002419F80410E1B102208B
:100A300005F06EF8641CE4B21A2CF5D331220021C3
:100A4000684604F0B8FAA7F13B013122684604F089
:100A5000F9FA684606F07EFD761CF6B2AE42C6D9BB
:100A60000DB00020BDE8F0832021E0E720A70008BA
:100A7000C80000200A0D2000044810B50021817034
:100A8000C17004F0D9FE002010BD0000C800002095
:100A900070B58EB00D4604461A220021684604F057
:100AA0008AFA04EB440000EBC40005EBC005A5F195
:100AB00057011A22684604F0C5FA10A006F04AFD54
:100AC00000246E46315DB9B1022005F021F8641CA6
:100AD000E4B21A2CF6D331220021684604F06BFAF6
:100AE000A5F13B013122684604F0ACFA684606F0F5
:100AF00031FD0EB0002070BD2021E5E70A0D200079
:100B0000012080F31388BFF34F8F05480168054A21
:100B100001F4E06111430160BFF34F8FFEE7000075
:100B20000CED00E00400FA0510B5421E86B00C463C
:100B3000082A11D211220021684604F03CFA112241
:100B40001049684604F02CFA2146684604F0F2FA8F
:100B500098B9052006B010BD09280ED11122002138
:100B6000684604F028FA11220749684604F06AFA38
:100B70002146684604F0DEFA08B10020EAE70720C3
:100B8000E8E70000CC00002066A60008054C2078AD
:100B900010B105F097F801E005F064FC322005F093
:100BA00061FEF4E7CA000020704700000149486177
:100BB000704700000090024002680021002A08DB14
:100BC0000268120405D40268D20502D50068C0F399
:100BD0000D4108467047000010B5074C2068FFF72C
:100BE000EBFF0028FAD14020FFF7E0FFBDE81040FE
:100BF0004FF48030FFF7DABF380000208000A0F10A
:100C0000C0400029016802D041F0010101E0024A20
:100C10001140016070470000FEFF0F0010B5D0E9E1
:100C200001121143D0E903231A43114342691143CE
:100C300082691143C2691143026A1143426A114336
:100C4000826A1143C26A1143026B11430268920027
:100C5000A2F1C04211608168082907D101688900AA
:100C6000A1F1C0410A6842F040020A60416BD1E93B
:100C7000002342EA03128B688C891B0243EA044377
:100C80001A430B8A42EA03520B7D896942EA0362E6
:100C90000A4301688900A1F1C0414A60C16AB1F507
:100CA000804F08D000686FF070418000A0F1C04014
:100CB000C0F8041110BD816BD1E9002342EA031290
:100CC0008B680C8A1B0243EA04531A430B7D896923
:100CD00042EA036200680A438000A0F1C040C0F805
:100CE000042110BD2DE9F04798B001217A2004F0CD
:100CF000B5F90121084604F0BDF901258DF804502D
:100D000000244FF400408DF80640022600908DF834
:100D100005608DF807506946994800F03BF98DF859
:100D200004604FF633708DF806400327DFF854A2B5
:100D300000908DF805708DF807506946504600F018
:100D400029F98DF804604FF683708DF80640DFF8BE
:100D5000389200908DF805708DF807506946484626
:100D600000F018F98DF804604FF23F008DF806404E
:100D7000DFF8188200908DF805708DF807506946ED
:100D8000404600F007F98DF804608DF806408DF8B4
:100D900005708DF8075040F23F407D4D0090694648
:100DA000284600F0F7F80C220021504600F02EF9FA
:100DB0000C220121504600F029F90C220421504652
:100DC00000F024F90C220521504600F01FF90C22F6
:100DD0000821504600F01AF90C220921504600F073
:100DE00015F90C220A21504600F010F90C220B21B3
:100DF000504600F00BF90C221146504600F006F95F
:100E00000C220D21504600F001F90C220E21504613
:100E100000F0FCF80C220F21504600F0F7F80C22ED
:100E20000021484600F0F2F80C220121484600F06B
:100E3000EDF80C220721484600F0E8F80C220821C2
:100E4000484600F0E3F80C220921484600F0DEF89D
:100E50000C220A21484600F0D9F80C220B21484602
:100E600000F0D4F80C221146484600F0CFF80C22CE
:100E70000D21484600F0CAF80C220E21484600F029
:100E8000C5F80C220F21484600F0C0F80C220021C2
:100E9000404600F0BBF80C220121404600F0B6F8B5
:100EA0000C220221404600F0B1F80C2203214046FA
:100EB00000F0ACF80C220421404600F0A7F80C2208
:100EC0000521404600F0A2F80C221146404600F0F1
:100ED0009DF80C220D21404600F098F80C220E21BE
:100EE000404600F093F80C220F21404600F08EF8A7
:100EF0000C220021284600F089F80C220121284606
:100F000000F084F80C220221284600F07FF80C2221
:100F10000321284600F07AF80C220421284600F02C
:100F200075F80C220521284600F070F80C220A21E1
:100F3000284600F06BF80820CDE912401194169471
:100F400004201794CDE9020414941020CDE9044044
:100F5000159406940002CDE90A4011A80994CDE940
:100F60000E400894079410900C940D9402A8FFF77B
:100F700055FE01210420FFF741FE18B0BDE8F087BF
:100F800000040240000C0240001002400014024025
:100F900000180240F0B5002201274FF0030C0B6847
:100FA00007FA02F52B40AB422CD1066853000CFA2D
:100FB00003F4A64306600E79D0F800E09E4046EAAE
:100FC0000E0606600E79012E01D0022E12D186681F
:100FD000A64386604E79D0F808E09E4046EA0E06A9
:100FE00086604668AE43466045688E799640B6B2E4
:100FF00035434560C568A543C560CC799C40C3684E
:101000001C43C460521C102AC9D3F0BD4B07DB0E31
:101010009A40C90810B500EB8100016A0F249C407A
:10102000A1430162016A1143016210BD018370474F
:10103000FEE700001CB50121112004F00FF81C2070
:10104000009000208DF8040003208DF80500012495
:101050008DF8074069460648FFF79CFF02208DF88F
:101060000700009469460348FFF794FF1CBD000089
:1010700000100240000002402DE9F043184F0646E0
:10108000002438887D884543B888A0F5D0410439CC
:1010900002D1B879012808D00021084603F000FEEB
:1010A00003F04EFF4FF0D84016E00020B8714FF02B
:1010B0002A09A7F80A904FF02B08A7F80C800146E0
:1010C00003F0EEFD0120B871A7F80A80A7F80C9094
:1010D000E6E7A0F88060641CAC42FAD3BDE8F08378
:1010E000806200202DE9F04F4A492A232B24898869
:1010F00045F2105A4FF4305B4FF4285E4FF44875B8
:101100004FF0F00C49F241394FF4A07745F2103618
:101110004FF4F07280B13F484FF00108494580F824
:1011200006800780A0F802C001D0B1423ED12C2534
:1011300005814381848157E036484FF000084945D6
:1011400080F80680A0F800C0478006D0A1F5D04CFA
:10115000BCF1040C01D0B1420CD12C250581438196
:10116000A1F5D0438481043B01D0B14244D1078032
:10117000428041E0514507D1A0F808B0A0F80AE04C
:101180004FF42C5181810EE0A1F5C856633E06D084
:101190002221018120214181212181812CE02C21EA
:1011A0000181448183810280458025E0A1F5D04CF6
:1011B000BCF1040C09D051450BD1A0F808B0A0F83F
:1011C0000AE04FF42C53838121E02C2505814481D2
:1011D00009E0A1F5C85CBCF1630C12D022230381A5
:1011E0002123438120238381A1F5D043043B01D0F7
:1011F000B14201D102804780BDE8F04F002003F0EA
:101200004DBC4FF02C0CA0F808C0438184810580B0
:101210004280E9E7806200202DE9F043414D91468C
:101220000C460246060AA9882846A1F513434089C0
:101230004FEA1428413B17D0A1F5A643103B13D029
:10124000A1F5AA43103B13D02E46A1F5C857B37998
:101250003688B61A761E633F23D0A1F5D047043FE7
:101260003AD0012B4DD04DE003F05EFE304639E020
:1012700003F05AFE304603F04BFE6889401C80B2F2
:1012800003F052FED0B203F043FEA88903F04CFEF7
:10129000404603F03DFEA889401C80B203F044FEA6
:1012A0002BE003B9B2B203F03FFE160A304603F05A
:1012B0002FFED0B203F02CFE304603F029FED0B250
:1012C00003F026FEA88903F02FFE404603F020FE1F
:1012D000E0B203F01DFE0DE0012B00D1B2B203F02D
:1012E00023FE100A03F014FED0B203F011FEA88909
:1012F00003F01AFE404603F00BFEE0B203F008FED6
:1013000007E0B2B2114603F025FEA889214603F09A
:1013100021FE4FF0D840298920F87E1FA0F80290C6
:10132000BDE8F083806200202DE9F04FA1B00024D9
:1013300001217A201F9403F091FE0121084603F059
:1013400099FE01208DF804008DF8064002208DF8EA
:10135000050001204FF4004B8DF80700CDF800B0D8
:101360006946FE48FFF716FE4CF2337000900220EB
:101370008DF804008DF8064003208DF8050001204B
:101380008DF807006946F648FFF704FE4FF68070B7
:10139000009002208DF804008DF8064003208DF89F
:1013A00005000120EF4D8DF8070069462846FFF73C
:1013B000F1FDA814009002208DF804008DF806407D
:1013C00003208DF805000120E74E8DF807006946DF
:1013D0003046FFF7DFFDA814009002208DF80400CE
:1013E0008DF8064003208DF805000120DF4F8DF8B1
:1013F000070069463846FFF7CDFD0C220021D8488A
:10140000FFF704FE0C220121D548FFF7FFFD0C2257
:101410000421D348FFF7FAFD0C220521D048FFF73D
:10142000F5FD0C220821CE48FFF7F0FD0C22092122
:10143000CB48FFF7EBFD0C220A21C948FFF7E6FD78
:101440000C220E21C648FFF7E1FD0C220F21C448F3
:10145000FFF7DCFD0C2207212846FFF7D7FD0C2201
:1014600008212846FFF7D2FD0C2209212846FFF764
:10147000CDFD0C220A212846FFF7C8FD0C220B21C6
:101480002846FFF7C3FD0C2211462846FFF7BEFD94
:101490000C220D212846FFF7B9FD0C220E2128460B
:1014A000FFF7B4FD0C220F212846FFF7AFFD0C22F9
:1014B00011463046FFF7AAFD0C2211463846FFF7C9
:1014C000A5FD0F20CDE911043C20CDE913041594AE
:1014D00009201694CDE917400820CDE919401B9446
:1014E0001C940620CDE902041D941E941020CDE921
:1014F000044006940002CDE90A4008940794800055
:10150000CDE90C40099411A8CDE90E4018A810901F
:1015100002A8FFF783FB01210620FFF76FFB3220B3
:1015200005F006F80121002003F014FD322004F03C
:10153000FFFF002003F080FA8D4F4FF0204A4FF656
:10154000FF79B88049F2413545F2103645F2105422
:1015500041F6631246F60408FF2804D3484502D03A
:10156000B0F5134F74D1D32003F0DEFC03F05AFA28
:10157000B88003F057FAB88003F054FA09EA002063
:10158000B88003F04FFAB9880843B880A8425FD00A
:10159000BF2003F0C9FC03F045FAB88003F042FA1B
:1015A000B88003F03FFAB88003F03CFA09EA002063
:1015B000B88003F037FAB9880843B880404547D06F
:1015C000D42003F0B1FC03F02DFAB88003F02AFA1E
:1015D000B88003F027FA09EA0020B88003F022FA65
:1015E000B9880843B880B04232D04FF45A4003F073
:1015F0009BFC03F017FAB8804FF45B4003F094FCB7
:1016000003F010FA09EA0020B8804FF45C4003F0C0
:101610008BFC03F007FAB9880843B880584501D11C
:10162000BC801EE0A04213D0A12003F07DFC03F09B
:10163000F9F9B88003F0F6F909EA0020B88003F060
:10164000F1F9B9880843A0F5AE41B880613920D0DE
:1016500080B2A84205D0B04203D0A04201D090424F
:1016600019D1DAF81C11504621F00F01CAF81C11EB
:10167000DAF81C1121F47061CAF81C11DAF81C1197
:1016800041F00301CAF81C11DAF81C1141F4007191
:101690001EE0BA80E5E7404503D0A0F54541053995
:1016A00018D1DAF81C11504621F00F01CAF81C11AC
:1016B000DAF81C1121F47061CAF81C11DAF81C1157
:1016C00041F00A01CAF81C11DAF81C1141F440611A
:1016D000C0F81C11B888A8427DD1CF2003F024FCAB
:1016E000002003F015FCC12003F012FC302003F0B1
:1016F0000FFCED2003F018FC642003F009FC03202C
:1017000003F006FC122003F003FC812003F000FC30
:10171000E82003F009FC852003F0FAFB102003F019
:10172000F7FB7A2003F0F4FBCB2003F0FDFB39201C
:1017300003F0EEFB2C2003F0EBFB002003F0E8FBB2
:10174000342003F0E5FB022003F0E2FBF72003F076
:10175000EBFB202003F0DCFBEA200BE0000402405E
:10176000000C024000100240001402400018024029
:101770008062002003F0D8FB002003F0C9FB0020AA
:1017800003F0C6FBC02003F0CFFB1B2003F0C0FB1F
:10179000C12003F0C9FB012003F0BAFBC52003F010
:1017A000C3FB302003F0B4FB302003F0B1FBC720B3
:1017B00003F0BAFBB72003F0ABFB362003F0B4FB19
:1017C000482003F0A5FB3A2003F0AEFB552003F0C0
:1017D0009FFBB12000E09EE003F0A6FB002003F099
:1017E00097FB1A2003F094FBB62003F09DFB0A2020
:1017F00003F08EFBA22003F08BFBF22003F094FB9E
:10180000002003F085FB262003F08EFB012003F06F
:101810007FFBE02003F088FB0F2003F079FB2A20F8
:1018200003F076FB282003F073FB082003F070FB25
:101830000E2003F06DFB082003F06AFB542003F038
:1018400067FBA92003F064FB432003F061FB0A203F
:1018500003F05EFB0F2003F05BFB002003F058FB5E
:10186000002003F055FB002003F052FB002003F0A2
:101870004FFBE12003F058FB002003F049FB15204B
:1018800003F046FB172003F043FB072003F040FB67
:10189000112003F03DFB062003F03AFB2B2003F060
:1018A00037FB562003F034FB3C2003F031FB0520CE
:1018B00003F02EFB102003F02BFB0F2003F028FB7E
:1018C0003F2003F025FB3F2003F022FB0F2003F015
:1018D0001FFB2B2003F028FB002003F019FB002046
:1018E00003F016FB012003F013FB3F2003F010FB75
:1018F0002A2003F019FB002003F00AFB002003F06C
:1019000007FB002003F004FBEF2003F001FB112094
:1019100003F00AFBA5E040457ED1112003F004FB53
:10192000142004F005FED02003F0FEFA072003F097
:10193000EFFA422003F0ECFA1D2003F0E9FAD1207F
:1019400003F0F2FA002003F0E3FA1A2003F0E0FAC1
:10195000092003F0DDFAD22003F0E6FA012003F0BB
:10196000D7FA222003F0D4FAC02003F0DDFA1020C9
:1019700003F0CEFA3B2003F0CBFA002003F0C8FAC4
:10198000022003F0C5FA112003F0C2FAC52003F0CB
:10199000CBFA032003F0BCFAC82003F0C5FA0020FC
:1019A00003F0B6FA252003F0B3FA212003F0B0FAD1
:1019B000052003F0ADFA002003F0AAFA0A2003F094
:1019C000A7FA652003F0A4FA252003F0A1FA7720F6
:1019D00003F09EFA502003F09BFA0F2003F098FAD0
:1019E000002003F095FAF82003F09EFA012003F09E
:1019F0008FFAFE2003F098FA002003F089FA022003
:101A000003F086FA202003F08FFA362003F08CFAD8
:101A1000082003F07DFA00E029E03A2003F084FA80
:101A2000552003F075FA2B2003F07EFA002003F016
:101A30006FFA002003F06CFA012003F069FA3F20EE
:101A400003F066FA2A2003F06FFA002003F060FA30
:101A5000002003F05DFA012003F05AFADF2003F0C2
:101A600057FA782004F064FD292001F0FBBEB04253
:101A70007ED1ED2003F058FA012003F049FAFE2050
:101A800003F046FAEE2003F04FFADE2003F040FAAE
:101A9000212003F03DFAF12003F046FA012003F083
:101AA00037FADF2003F040FA102003F031FAC420A7
:101AB00003F03AFA8F2003F02BFAC62003F034FA31
:101AC000002003F025FAE22003F022FAE22003F0DE
:101AD0001FFAE22003F01CFABF2003F025FAAA2027
:101AE00003F016FAB02003F01FFA0D2003F010FAED
:101AF000002003F00DFA0D2003F00AFA002003F095
:101B000007FA112003F004FA002003F001FA19206B
:101B100003F0FEF9002003F0FBF9212003F0F8F9AF
:101B2000002003F0F5F92D2003F0F2F9002003F076
:101B3000EFF93D2003F0ECF9002003F0E9F95D2016
:101B400003F0E6F9002003F0E3F95D2003F0E0F98B
:101B5000002003F0DDF9B12003F0E6F9802003F066
:101B6000D7F9002003F0D4F98B2003F0D1F900E07D
:101B7000FDE3002003F0CCF9962003F0C9F9002022
:101B800003F0C6F9B22003F0CFF9002003F0C0F94A
:101B9000002003F0BDF9022003F0BAF9002003F0A1
:101BA000B7F9032003F0B4F9002003F0B1F9B32032
:101BB00003F0BAF9002003F0ABF9002003F0A8F914
:101BC000002003F0A5F9002003F0A2F9002003F0A3
:101BD0009FF9002003F09CF9002003F099F9002000
:101BE00003F096F9002003F093F9002003F090F938
:101BF000002003F08DF9002003F08AF9002003F0A3
:101C000087F9002003F084F9002003F081F9002017
:101C100003F07EF9002003F07BF9002003F078F94F
:101C2000002003F075F9002003F072F9002003F0A2
:101C30006FF9002003F06CF9002003F069F900202F
:101C400003F066F9B42003F06FF98B2003F060F91C
:101C5000002003F05DF9962003F05AF9002003F00C
:101C600057F9A12003F054F9002003F051F9B520F1
:101C700003F05AF9022003F04BF9002003F048F971
:101C8000032003F045F9002003F042F9042003F09B
:101C90003FF9002003F03CF9B62003F045F900209D
:101CA00003F036F9002003F033F9B72003F03CF9D4
:101CB000002003F02DF9002003F02AF93F2003F063
:101CC00027F9002003F024F95E2003F021F9002019
:101CD00003F01EF9642003F01BF9002003F018F94B
:101CE0008C2003F015F9002003F012F9AC2003F06A
:101CF0000FF9002003F00CF9DC2003F009F90020B3
:101D000003F006F9702003F003F9002003F000F956
:101D1000902003F0FDF8002003F0FAF8EB2003F028
:101D2000F7F8002003F0F4F8DC2003F0F1F80020CD
:101D300003F0EEF8B82003F0F7F8002003F0E8F81D
:101D4000002003F0E5F8002003F0E2F8002003F0A3
:101D5000DFF8002003F0DCF8002003F0D9F80020C1
:101D600003F0D6F8002003F0D3F8BA2003F0DCF833
:101D7000242003F0CDF8002003F0CAF8002003F07F
:101D8000C7F8002003F0C4F8C12003F0CDF82020EC
:101D900003F0BEF8002003F0BBF8542003F0B8F8BD
:101DA000002003F0B5F8FF2003F0B2F8002003F0A4
:101DB000AFF8C22003F0B8F80A2003F0A9F8002019
:101DC00003F0A6F8042003F0A3F8002003F0A0F825
:101DD000C32003F0A9F83C2003F09AF8002003F098
:101DE00097F83A2003F094F8002003F091F8392096
:101DF00003F08EF8002003F08BF8372003F088F80A
:101E0000002003F085F83C2003F082F8002003F066
:101E10007FF8362003F07CF8002003F079F83220B8
:101E200003F076F8002003F073F82F2003F070F829
:101E3000002003F06DF82C2003F06AF8002003F076
:101E400067F8292003F064F8002003F061F82620E9
:101E500003F05EF8002003F05BF8242003F058F84C
:101E6000002003F055F8242003F052F8002003F07E
:101E70004FF8232003F04CF8002003F049F83C20F1
:101E800003F046F8002003F043F8362003F040F852
:101E9000002003F03DF8322003F03AF8002003F070
:101EA00037F82F2003F034F8002003F031F82C200D
:101EB00003F02EF8002003F02BF8292003F028F877
:101EC000002003F025F8262003F022F8002003F07C
:101ED0001FF8242003F01CF8002003F019F8242038
:101EE00003F016F8002003F013F8232003F010F895
:101EF000002003F00DF8C42003F016F8622003F070
:101F000007F8002003F004F8052003F001F8002092
:101F100002F0FEFF842002F0FBFF002002F0F8FF39
:101F2000F02002F0F5FF002002F0F2FF182002F08E
:101F3000EFFF002002F0ECFFA42002F0E9FF0020F8
:101F400002F0E6FF182002F0E3FF002002F0E0FFBD
:101F5000502002F0DDFF002002F0DAFF0C2002F03A
:101F6000D7FF002002F0D4FF172002F0D1FF00209D
:101F700002F0CEFF952002F0CBFF002002F0C8FF58
:101F8000F32002F0C5FF002002F0C2FFE62002F0BD
:101F9000BFFF002002F0BCFFC52002F0C5FF3220C9
:101FA00002F0B6FF002002F0B3FF442002F0B0FFC1
:101FB000002002F0ADFF652002F0AAFF002002F031
:101FC000A7FF762002F0A4FF002002F0A1FF8820E6
:101FD00002F09EFF002002F09BFFC62002F0A4FF4B
:101FE000202002F095FF002002F092FF172002F05F
:101FF0008FFF002002F08CFF012002F089FF0020FB
:1020000002F086FFC72002F08FFF002002F080FF61
:10201000002002F07DFF002002F07AFF002002F095
:1020200077FFC82002F080FF002002F071FF00203F
:1020300002F06EFF002002F06BFF002002F068FF4C
:10204000C92002F071FF002002F062FF002002F0C0
:102050005FFF002002F05CFF002002F059FF00202B
:1020600002F056FF002002F053FF002002F050FF64
:10207000002002F04DFF002002F04AFF002002F095
:1020800047FF002002F044FF002002F041FF002043
:1020900002F03EFF002002F03BFF002002F038FF7C
:1020A000002002F035FFE02002F03EFF162002F093
:1020B0002FFF002002F02CFF1C2002F029FF00203F
:1020C00002F026FF212002F023FF002002F020FF73
:1020D000362002F01DFF002002F01AFF462002F019
:1020E00017FF002002F014FF522002F011FF002021
:1020F00002F00EFF642002F00BFF002002F008FF48
:102100007A2002F005FF002002F002FF8B2002F08F
:10211000FFFE002002F0FCFE992002F0F9FE0020F4
:1021200002F0F6FEA82002F0F3FE002002F0F0FE1E
:10213000B92002F0EDFE002002F0EAFEC42002F019
:10214000E7FE002002F0E4FECA2002F0E1FE0020DB
:1021500002F0DEFED22002F0DBFE002002F0D8FE0C
:10216000D92002F0D5FE002002F0D2FEE02002F0DD
:10217000CFFE002002F0CCFEF32002F0C9FE0020CA
:1021800002F0C6FEE12002F0CFFE162002F0C0FEF3
:10219000002002F0BDFE1C2002F0BAFE002002F07A
:1021A000B7FE222002F0B4FE002002F0B1FE36207D
:1021B00002F0AEFE002002F0ABFE452002F0A8FEC9
:1021C000002002F0A5FE522002F0A2FE002002F044
:1021D0009FFE642002F09CFE002002F099FE7A200F
:1021E00002F096FE002002F093FE8B2002F090FE9B
:1021F000002002F08DFE992002F08AFE002002F0FD
:1022000087FEA82002F084FE002002F081FEB920A3
:1022100002F07EFE002002F07BFEC42002F078FE79
:10222000002002F075FECA2002F072FE002002F0CB
:102230006FFED22002F06CFE002002F069FED82072
:1022400002F066FE002002F063FEE02002F060FE75
:10225000002002F05DFEF32002F05AFE002002F0A2
:1022600057FEE22002F060FE052002F051FE002041
:1022700002F04EFE0B2002F04BFE002002F048FE62
:102280001B2002F045FE002002F042FE342002F046
:102290003FFE002002F03CFE442002F039FE002008
:1022A00002F036FE4F2002F033FE002002F030FE36
:1022B000612002F02DFE002002F02AFE792002F0BB
:1022C00027FE002002F024FE882002F021FE0020DC
:1022D00002F01EFE972002F01BFE002002F018FE06
:1022E000A62002F015FE002002F012FEB72002F038
:1022F0000FFE002002F00CFEC22002F009FE0020BA
:1023000002F006FEC72002F003FE002002F000FEED
:10231000D12002F0FDFD002002F0FAFDD62002F0EF
:10232000F7FD002002F0F4FDDD2002F0F1FD0020B9
:1023300002F0EEFDF32002F0EBFD002002F0E8FDDC
:10234000E32002F0F1FD052002F0E2FD002002F0A2
:10235000DFFD0A2002F0DCFD002002F0D9FD1C2088
:1023600002F0D6FD002002F0D3FD332000E0FAE2B7
:1023700002F0CEFD002002F0CBFD442002F0C8FDAB
:10238000002002F0C5FD502002F0C2FD002002F046
:10239000BFFD622002F0BCFD002002F0B9FD7820F4
:1023A00002F0B6FD002002F0B3FD882002F0B0FD7F
:1023B000002002F0ADFD972002F0AAFD002002F0FF
:1023C000A7FDA62002F0A4FD002002F0A1FDB72089
:1023D00002F09EFD002002F09BFDC22002F098FD5D
:1023E000002002F095FDC72002F092FD002002F0CF
:1023F0008FFDD12002F08CFD002002F089FDD52058
:1024000002F086FD002002F083FDDD2002F080FD59
:10241000002002F07DFDF32002F07AFD002002F0A2
:1024200077FDE42002F080FD012002F071FD002024
:1024300002F06EFD012002F06BFD002002F068FD4D
:10244000022002F065FD002002F062FD2A2002F069
:102450005FFD002002F05CFD3C2002F059FD0020F1
:1024600002F056FD4B2002F053FD002002F050FD1B
:102470005D2002F04DFD002002F04AFD742002F0C4
:1024800047FD002002F044FD842002F041FD0020C1
:1024900002F03EFD932002F03BFD002002F038FDEB
:1024A000A22002F035FD002002F032FDB32002F040
:1024B0002FFD002002F02CFDBE2002F029FD00209F
:1024C00002F026FDC42002F023FD002002F020FDD2
:1024D000CD2002F01DFD002002F01AFDD32002F0F5
:1024E00017FD002002F014FDDD2002F011FD002098
:1024F00002F00EFDF32002F00BFD002002F008FDBB
:10250000E52002F011FD002002F002FD002002F0A3
:10251000FFFC002002F0FCFC002002F0F9FC02208D
:1025200002F0F6FC002002F0F3FC292002F0F0FC9F
:10253000002002F0EDFC3C2002F0EAFC002002F05A
:10254000E7FC4B2002F0E4FC002002F0E1FC5D20FF
:1025500002F0DEFC002002F0DBFC742002F0D8FC6C
:10256000002002F0D5FC842002F0D2FC002002F012
:10257000CFFC932002F0CCFC002002F0C9FCA2208A
:1025800002F0C6FC002002F0C3FCB32002F0C0FC45
:10259000002002F0BDFCBE2002F0BAFC002002F0D8
:1025A000B7FCC42002F0B4FC002002F0B1FCCD2046
:1025B00002F0AEFC002002F0ABFCD32002F0A8FC3D
:1025C000002002F0A5FCDC2002F0A2FC002002F0BA
:1025D0009FFCF32002F09CFC002002F099FCE62016
:1025E00002F0A2FC112002F093FC002002F090FC0B
:1025F000342002F08DFC002002F08AFC562002F00C
:1026000087FC002002F084FC762002F081FC002090
:1026100002F07EFC772002F07BFC002002F078FCC8
:10262000662002F075FC002002F072FC882002F0A7
:102630006FFC002002F06CFC992002F069FC002085
:1026400002F066FCBB2002F063FC002002F060FC9C
:10265000992002F05DFC002002F05AFC662002F096
:1026600057FC002002F054FC552002F051FC0020E1
:1026700002F04EFC552002F04BFC002002F048FC1A
:10268000452002F045FC002002F042FC432002F00D
:102690003FFC002002F03CFC442002F039FC00200A
:1026A00002F036FCE72002F03FFC322002F030FC62
:1026B000002002F02DFC552002F02AFC002002F040
:1026C00027FC762002F024FC002002F021FC66208A
:1026D00002F01EFC002002F01BFC672002F018FC38
:1026E000002002F015FC672002F012FC002002F02E
:1026F0000FFC872002F00CFC002002F009FC99205E
:1027000002F006FC002002F003FCBB2002F000FCFB
:10271000002002F0FDFB992002F0FAFB002002F0FD
:10272000F7FB772002F0F4FB002002F0F1FB4420DD
:1027300002F0EEFB002002F0EBFB562002F0E8FB7B
:10274000002002F0E5FB232002F0E2FB002002F073
:10275000DFFB332002F0DCFB002002F0D9FB452038
:1027600002F0D6FB002002F0D3FBE82002F0DCFBF5
:10277000002002F0CDFB002002F0CAFB992002F0FD
:10278000C7FB002002F0C4FB872002F0C1FB002041
:1027900002F0BEFB882002F0BBFB002002F0B8FB79
:1027A000772002F0B5FB002002F0B2FB662002F0B9
:1027B000AFFB002002F0ACFB882002F0A9FB002058
:1027C00002F0A6FBAA2002F0A3FB002002F0A0FB6F
:1027D000BB2002F09DFB002002F09AFB992002F042
:1027E00097FB002002F094FB662002F091FB002092
:1027F00002F08EFB552002F08BFB002002F088FBDC
:10280000552002F085FB002002F082FB442002F0FC
:102810007FFB002002F07CFB442002F079FB0020CB
:1028200002F076FB552002F073FB002002F070FBF3
:10283000E92002F079FBAA2002F06AFB002002F0F6
:1028400067FB002002F064FB002002F061FB002027
:1028500002F06AFBAA2002F05BFBCF2002F064FBCF
:10286000002002F055FB002002F052FB002002F095
:102870004FFB002002F04CFB002002F049FB00203F
:1028800002F046FB002002F043FB002002F040FB78
:10289000002002F03DFB002002F03AFB002002F095
:1028A00037FB002002F034FB002002F031FB002057
:1028B00002F02EFB002002F02BFB002002F028FB90
:1028C000002002F025FBF02002F02EFB002002F099
:1028D0001FFB502002F01CFB002002F019FB00201F
:1028E00002F016FB002002F013FBF32002F01CFBA9
:1028F000002002F00DFBF92002F016FB062002F08A
:1029000007FB102002F004FB292002F001FB00204D
:1029100002F0FEFA3A2002F007FB552002F0F8FA26
:10292000112002F001FB642003F002FE292002F0D6
:10293000FBFA352002F0F8FA002002F0E9FA512003
:1029400002F0F2FAFF2002F0E3FA532002F0ECFA70
:102950002C2002F0DDFA552002F0E6FA822002F087
:10296000D7FA2C20FEE3A0427ED14FF470435521CC
:10297000184602F0EFFA4FF20104AA21204602F0B5
:10298000E9FA651C5221284602F0E4FAA61C082147
:10299000304602F0DFFAE71C0121384602F0DAFA8D
:1029A0000D214FF4304002F0D5FA0D214BF2010019
:1029B00002F0D0FA0D214BF2020002F0CBFA4FF4F4
:1029C00036483421404602F0C5FA34214BF201600A
:1029D00002F0C0FA34214BF2026002F0BBFA4FF46D
:1029E000314A0D21504602F0B5FA4BF2011B0D2180
:1029F000584602F0AFFA0D214BF2021002F0AAFA8B
:102A000034214FF4374002F0A5FA34214BF2017023
:102A100002F0A0FA34214BF2027002F09BFA00217E
:102A20004FF4324002F096FA00214BF2012002F0FE
:102A300091FA00214BF2022002F08CFA24214FF48B
:102A4000384002F087FA24214BF6010002F082FAA6
:102A500024214BF6020002F07DFA01214FF43F40A1
:102A600002F078FA0F2100E0FEE34FF4334002F069
:102A700071FA0F214BF2013002F06CFA0F214BF288
:102A8000023002F067FA34214FF4394002F062FA62
:102A900034214BF6011002F05DFA34214BF602109E
:102AA00002F058FA08214FF4354002F053FA082199
:102AB0004BF2015002F04EFA08214BF2025002F0A4
:102AC00049FA03214FF4424002F044FA24214FF422
:102AD0003A4002F03FFA24214BF6012002F03AFA84
:102AE00024214BF6022002F035FA00214FF43C403D
:102AF00002F030FA78214BF6014002F02BFA002167
:102B00004BF6024002F026FA00214FF43D4002F05D
:102B100021FA78214BF6015002F01CFA00214BF605
:102B2000025002F017FA00214FF43E4002F012FA70
:102B300064214BF6016002F00DFA00214FF4514080
:102B400002F008FA33214DF2011002F003FA0021DD
:102B50004DF2021002F0FEF934214DF2031002F0A2
:102B6000F9F900214DF2041002F0F4F93A214DF286
:102B7000051002F0EFF900214DF2061002F0EAF91B
:102B80004A214DF2071002F0E5F900214DF208103C
:102B900002F0E0F95C214DF2091002F0DBF90021AE
:102BA0004DF20A1002F0D6F981214DF20B1002F01D
:102BB000D1F900214DF20C1002F0CCF9A6214DF212
:102BC0000D1002F0C7F900214DF20E1002F0C2F90B
:102BD000E5214DF20F1002F0BDF901214DF2101068
:102BE00002F0B8F913214DF2111002F0B3F90121EE
:102BF0004DF2121002F0AEF954214DF2131002F012
:102C0000A9F901214DF2141002F0A4F982214DF22C
:102C1000151002F09FF901214DF2161002F09AF9F9
:102C2000CA214DF2171002F095F902214DF2181049
:102C300002F090F900214DF2191002F08BF90221F7
:102C40004DF21A1002F086F901214DF21B1002F02C
:102C500081F902214DF21C1002F07CF934214DF271
:102C60001D1002F077F902214DF21E1002F072F9E8
:102C700067214DF21F1002F06DF902214DF2201074
:102C800002F068F984214DF2211002F063F902216B
:102C90004DF2221002F05EF9A4214DF2231002F051
:102CA00059F902214DF2241002F054F9B7214DF2E6
:102CB000251002F04FF902214DF2261002F04AF9D8
:102CC000CF214DF2271002F045F902214DF22810D4
:102CD00002F040F9DE214DF2291002F03BF9022109
:102CE0004DF22A1002F036F9F2214DF22B1002F0CB
:102CF00031F902214DF22C1002F02CF9FE214DF297
:102D00002D1002F027F903214DF22E1002F022F9C6
:102D100010214DF22F1002F01DF903214DF2301059
:102D200002F018F933214DF2311002F013F90321AA
:102D30004DF2321002F00EF96D214DF2331002F017
:102D400009F900214FF4524002F004F933214DF209
:102D5000012002F0FFF800214DF2022002F0FAF803
:102D600034214DF2032002F0F5F800214DF2042049
:102D700002F0F0F83A214DF2052002F0EBF80021C4
:102D80004DF2062002F0E6F84A214DF2072002F04B
:102D9000E1F800214DF2082002F0DCF85C214DF250
:102DA000092002F0D7F800214DF20A2002F0D2F8F3
:102DB00081214DF20B2002F0CDF800214DF20C20C4
:102DC00002F0C8F8A6214DF20D2002F0C3F8002150
:102DD0004DF20E2002F0BEF8E5214DF20F2002F078
:102DE000B9F801214DF2102002F0B4F813214DF290
:102DF000112002F0AFF801214DF2122002F0AAF8E2
:102E000054214DF2132002F0A5F801214DF21420B7
:102E100002F0A0F882214DF2152002F09BF801216A
:102E20004DF2162002F096F8CA214DF2172002F05A
:102E300091F802214DF2182002F08CF800214DF299
:102E4000192002F087F802214DF21A2002F082F8D0
:102E500001214DF21B2002F07DF802214DF21C20D1
:102E600002F078F834214DF21D2002F073F80221AF
:102E70004DF21E2002F06EF867214DF21F2002F085
:102E800069F802214DF2202002F064F884214DF20D
:102E9000212002F05FF802214DF2222002F05AF8C0
:102EA000A4214DF2232002F055F802214DF22420F6
:102EB00002F050F8B7214DF2252002F04BF8022124
:102EC0004DF2262002F046F8CF214DF2272002F0E5
:102ED00041F802214DF2282002F03CF8DE214DF2AB
:102EE000292002F037F802214DF22A2002F032F8B0
:102EF000F2214DF22B2002F02DF802214DF22C2070
:102F000002F028F8FE214DF22D2002F023F80321D3
:102F10004DF22E2002F01EF810214DF22F2002F06B
:102F200019F803214DF2302002F014F833214DF24C
:102F3000312002F00FF803214DF2322002F00AF89E
:102F40006D214DF2332002F005F800214FF453407B
:102F500002F000F833214DF2013001F0FBFF0021B7
:102F60004DF2023001F0F6FF34214DF2033001F052
:102F7000F1FF00214DF2043001F0ECFF3A214DF257
:102F8000053001F0E7FF00214DF2063001F0E2FFCD
:102F90004A214DF2073001F0DDFF00214DF20830EB
:102FA00001F0D8FF5C214DF2093001F0D3FF002180
:102FB0004DF20A3001F0CEFF81214DF20B3001F0CD
:102FC000C9FF00214DF20C3001F0C4FFA6214DF2E3
:102FD0000D3001F0BFFF00214DF20E3001F0BAFFBD
:102FE000E5214DF20F3001F0B5FF01214DF2103017
:102FF00001F0B0FF13214DF2113001F0ABFF0121C0
:103000004DF2123001F0A6FF54214DF2133001F0C1
:10301000A1FF01214DF2143001F09CFF82214DF2FD
:10302000153001F097FF01214DF2163001F092FFAB
:10303000CA214DF2173001F08DFF02214DF21830F8
:1030400001F088FF00214DF2193001F083FF0221C9
:103050004DF21A3001F07EFF01214DF21B3001F0DC
:1030600079FF02214DF21C3001F074FF34214DF242
:103070001D3001F06FFF02214DF21E3001F06AFF9A
:1030800067214DF21F3001F065FF02214DF2203023
:1030900001F060FF84214DF2213001F05BFF02213D
:1030A0004DF2223001F056FFA4214DF2233001F001
:1030B00051FF02214DF2243001F04CFFB7214DF2B7
:1030C000253001F047FF02214DF2263001F042FF8A
:1030D000CF214DF2273001F03DFF02214DF2283083
:1030E00001F038FFDE214DF2293001F033FF0221DB
:1030F0004DF22A3001F02EFFF2214DF22B3001F07B
:1031000029FF02214DF22C3001F024FFFE214DF267
:103110002D3001F01FFF03214DF22E3001F01AFF78
:1031200010214DF22F3001F015FF03214DF2303008
:1031300001F010FF33214DF2313001F00BFF03217C
:103140004DF2323001F006FF6D214DF2333001F0C7
:1031500001FF00214FF4544001F0FCFE33214DF2F9
:10316000014000E07EE301F0F5FE00214DF2024057
:1031700001F0F0FE34214DF2034001F0EBFE00219E
:103180004DF2044001F0E6FE3A214DF2054001F017
:10319000E1FE00214DF2064001F0DCFE4A214DF235
:1031A000074001F0D7FE00214DF2084001F0D2FEA9
:1031B0005C214DF2094001F0CDFE00214DF20A40A4
:1031C00001F0C8FE81214DF20B4001F0C3FE002149
:1031D0004DF20C4001F0BEFEA6214DF20D4001F073
:1031E000B9FE00214DF20E4001F0B4FEE5214DF292
:1031F0000F4001F0AFFE01214DF2104001F0AAFE98
:1032000013214DF2114001F0A5FE01214DF21240B3
:1032100001F0A0FE54214DF2134001F09BFE01216C
:103220004DF2144001F096FE82214DF2154001F05E
:1032300091FE01214DF2164001F08CFECA214DF2A3
:10324000174001F087FE02214DF2184001F082FE86
:1032500000214DF2194001F07DFE02214DF21A408D
:1032600001F078FE012100E0FFE24DF21B4001F089
:1032700071FE02214DF21C4001F06CFE34214DF232
:103280001D4001F067FE02214DF21E4001F062FE7A
:1032900067214DF21F4001F05DFE02214DF22040FA
:1032A00001F058FE84214DF2214001F053FE02212D
:1032B0004DF2224001F04EFEA4214DF2234001F0D8
:1032C00049FE02214DF2244001F044FEB7214DF2A7
:1032D000254001F03FFE02214DF2264001F03AFE6A
:1032E000CF214DF2274001F035FE02214DF228405A
:1032F00001F030FEDE214DF2294001F02BFE0221CB
:103300004DF22A4001F026FEF2214DF22B4001F051
:1033100021FE02214DF22C4001F01CFEFE214DF257
:103320002D4001F017FE03214DF22E4001F012FE58
:1033300010214DF22F4001F00DFE03214DF23040DF
:1033400001F008FE33214DF2314001F003FE03216C
:103350004DF2324001F0FEFD6D214DF2334001F09F
:10336000F9FD00214FF4554001F0F4FD33214DF2F9
:10337000015001F0EFFD00214DF2025001F0EAFD95
:1033800034214DF2035001F0E5FD00214DF20450CF
:1033900001F0E0FD3A214DF2055001F0DBFD002186
:1033A0004DF2065001F0D6FD4A214DF2075001F0D2
:1033B000D1FD00214DF2085001F0CCFD5C214DF211
:1033C000095001F0C7FD00214DF20A5001F0C2FD85
:1033D00081214DF20B5001F0BDFD00214DF20C504A
:1033E00001F0B8FDA6214DF20D5001F0B3FD002112
:1033F0004DF20E5001F0AEFDE5214DF20F5001F0FF
:10340000A9FD01214DF2105001F0A4FD13214DF250
:10341000115001F09FFD01214DF2125001F09AFD73
:1034200054214DF2135001F095FD01214DF214503D
:1034300001F090FD82214DF2155001F08BFD01212C
:103440004DF2165001F086FDCA214DF2175001F0E1
:1034500081FD02214DF2185001F07CFD00214DF25A
:10346000195001F077FD02214DF21A5001F072FD62
:1034700001214DF21B5001F06DFD02214DF21C5057
:1034800001F068FD34214DF21D5001F063FD022171
:103490004DF21E5001F05EFD67214DF21F5001F00C
:1034A00059FD02214DF2205001F054FD84214DF2CE
:1034B000215001F04FFD02214DF2225001F04AFD52
:1034C000A4214DF2235001F045FD02214DF224507C
:1034D00001F040FDB7214DF2255001F03BFD0221E6
:1034E0004DF2265001F036FDCF214DF2275001F06C
:1034F00031FD02214DF2285001F02CFDDE214DF26C
:10350000295001F027FD02214DF22A5001F022FD41
:10351000F2214DF22B5001F01DFD02214DF22C50F5
:1035200001F018FDFE214DF22D5001F013FD032195
:103530004DF22E5001F00EFD10214DF22F5001F0F2
:1035400009FD03214DF2305001F004FD33214DF20D
:10355000315001F0FFFC03214DF2325001F0FAFC32
:103560006D214DF2335001F0F5FC00214FF456402F
:1035700001F0F0FC33214DF2016001F0EBFC002181
:103580004DF2026001F0E6FC34214DF2036001F0DF
:10359000E1FC00214DF2046001F0DCFC3A214DF227
:1035A000056001F0D7FC00214DF2066001F0D2FC6D
:1035B0004A214DF2076001F0CDFC00214DF2086078
:1035C00001F0C8FC5C214DF2096001F0C3FC002150
:1035D0004DF20A6001F0BEFC81214DF20B6001F05A
:1035E000B9FC00214DF20C6001F0B4FCA6214DF2B3
:1035F0000D6001F0AFFC00214DF20E6001F0AAFC5D
:10360000E5214DF20F6001F0A5FC01214DF21060A3
:1036100001F0A0FC13214DF2116001F09BFC01218F
:103620004DF2126001F096FC54214DF2136001F04E
:1036300091FC01214DF2146001F08CFC82214DF2CD
:10364000156001F087FC01214DF2166001F082FC4B
:10365000CA214DF2176001F07DFC02214DF2186085
:1036600001F078FC00214DF2196001F073FC022199
:103670004DF21A6001F06EFC01214DF21B6001F069
:1036800069FC02214DF21C6001F064FC34214DF212
:103690001D6001F05FFC02214DF21E6001F05AFC3A
:1036A00067214DF21F6001F055FC02214DF22060B0
:1036B00001F050FC84214DF2216001F04BFC02210D
:1036C0004DF2226001F046FCA4214DF2236001F08E
:1036D00041FC02214DF2246001F03CFCB7214DF287
:1036E000256001F037FC02214DF2266001F032FC2A
:1036F000CF214DF2276001F02DFC02214DF2286010
:1037000001F028FCDE214DF2296001F023FC0221AA
:103710004DF22A6001F01EFCF2214DF22B6001F007
:1037200019FC02214DF22C6001F014FCFE214DF237
:103730002D6001F00FFC03214DF22E6001F00AFC18
:1037400010214DF22F6001F005FC03214DF2306095
:1037500001F000FC33214DF2316001F0FBFB03214D
:103760004DF2326001F0F6FB6D214DF2336001F055
:10377000F1FB5521184601F0EDFBAA21204601F08E
:10378000E9FB5221284601F0E5FB0821304601F013
:10379000E1FB0021384601F0DDFBCC21504601F071
:1037A000D9FB0021584601F0D5FB0521404601F028
:1037B000D1FB70214FF4374001F0CCFB70214BF26C
:1037C000017001F0C7FB01214FF4384001F0C2FB4A
:1037D00003214BF6010001F0BDFB03214BF6020073
:1037E00001F0B8FB03214BF6030001F0B3FB02210B
:1037F0004FF43C4001F0AEFB00214BF6014001F0DC
:10380000A9FB00214BF6024001F0A4FBD0214FF4AC
:10381000494001F09FFB02214CF6011001F09AFB98
:1038200050214CF6021001F095FB50214CF603108C
:1038300001F090FB50214CF6041001F08BFB0021AD
:103840004FF4545001F086FB55214FF4685001F0BD
:1038500081FB4FF4885001F067FB782002F084FE72
:103860004FF4245001F060FBFFE0A0F513414FF44A
:1038700080744FF4E06840F2022A40F23F1B4FF49C
:10388000274625397ED0A0F5134140F20775283927
:1038900079D0A0F513414FF488764FF41C572039A6
:1038A00072D0A0F5134131396FD0A0F5A841083985
:1038B0006CD0A0F5A8514FF44076053967D0A0F53B
:1038C000354105397ED0A0F5454105397BD0A0F5BD
:1038D0008A41313978D0A0F58A41353975D0904286
:1038E000C2D1E22001F020FB1D2001F011FB0220DB
:1038F00001F00EFB042001F00BFB642002F034FE0B
:10390000E02001F011FB012001F002FB0A2002F08F
:103910000FFEE02001F008FB032001F0F9FA0C2073
:1039200002F006FE012001F0FFFA0A2002F000FE7C
:10393000E62001F0F9FA2F2001F0EAFAFF2001F069
:10394000E7FAFF2001F0E4FAB02001F0EDFA2020C0
:1039500001F0DEFA002001F0DBFA032001F0D8FAD2
:1039600040F21F3001F0D4FA012001F0D1FA40F208
:10397000DF1001F0CDFA002001F0CAFAB42001F006
:10398000D3FA05E07EE048E103E2A8E27CE3FDE350
:10399000042001F0BDFA40F21F4001F0B9FA002006
:1039A00001F0B6FA2E2001F0B3FA002001F0B0FACF
:1039B000002001F0ADFA002001F0AAFA002001F089
:1039C000A7FA03E0FDE3FDE3FDE3FDE3B62001F02C
:1039D000ABFA022001F09CFA4FF4037001F098FA60
:1039E000002001F095FA172001F092FA152001F05D
:1039F0008FFA002001F08CFA002001F089FAF02003
:103A000001F092FA032001F083FA292001F08CFAE8
:103A1000D02001F089FA002001F07AFABE2001F0EE
:103A200083FA052001F074FAFE2001F071FA0120FA
:103A300001F06EFA002001F06BFA002001F068FA44
:103A4000002001F065FAB82001F06EFA032001F0C1
:103A50005FFA012001F05CFABA2001F065FA01205A
:103A600001F056FA642000F0F1FF0020FDF73AFB68
:103A7000FE490120C1F8BC024846FDF7FDFA21B01D
:103A8000BDE8F08F47F6F001E52001F063FA21462A
:103A9000012001F05FFA4146022001F05BFA41F299
:103AA0003001032001F056FA0021042001F052FAFF
:103AB0005146082001F04EFA0021092001F04AFA8F
:103AC00000210A2001F046FA00210C2001F042FA00
:103AD00000210D2001F03EFA00210F2001F03AFAFA
:103AE0000021102001F036FA0721112001F032FAEE
:103AF0000021122001F02EFA0021132001F02AFAF1
:103B00000021072001F026FA41F29061102001F017
:103B100021FA40F22721112001F01CFA9D211220E8
:103B200001F018FA4FF4C851132001F013FA2521BF
:103B3000292001F00FFA0D212B2001F00BFA0721AB
:103B4000302001F007FA40F20331312001F002FA8F
:103B50000321322001F0FEF940F20621352001F068
:103B6000F9F90821362001F0F5F940F20641372035
:103B700001F0F0F94FF44171382001F0EBF9072121
:103B8000392001F0E7F940F202613C2001F0E2F94E
:103B900008213D2001F0DEF90021502001F0DAF982
:103BA000EF21512001F0D6F90021522001F0D2F985
:103BB0005946532001F0CEF93146602001F0CAF990
:103BC0000121612001F0C6F900216A2001F0C2F94B
:103BD0000021802001F0BEF90021812001F0BAF916
:103BE0000021822001F0B6F90021832001F0B2F912
:103BF0000021842001F0AEF90021852001F0AAF90E
:103C00001021902001F0A6F94FF4C061922001F03C
:103C1000A1F940F233110720FEE341F28F01EC20BD
:103C200001F098F941F23421EF2001F093F9214697
:103C3000012001F08FF94146022001F08BF941F299
:103C40003001032001F086F90021042001F082F9FF
:103C50005146082001F07EF90021092001F07AF98F
:103C600000210A2001F076F901210C2001F072F9FF
:103C700000210D2001F06EF900210F2001F06AF9FA
:103C80000021102001F066F90721112001F062F9EE
:103C90000021122001F05EF90021132001F05AF9F1
:103CA0000121072001F056F9322002F041FC41F2D7
:103CB0009041102001F04EF940F22721112001F02F
:103CC00049F9322002F034FC8A21122001F042F935
:103CD000322002F02DFC4FF4D051132001F03AF9BC
:103CE0000621292001F036F90D212B2001F032F9AF
:103CF000322002F01DFC0021202001F02BF90021D0
:103D0000212001F027F9322002F012FC002130209E
:103D100001F020F940F20461312001F01BF940F27A
:103D20000531322001F016F90021352001F012F999
:103D300040F60941362001F00DF94FF401713720AA
:103D400001F008F940F20131382001F003F9294669
:103D5000392001F0FFF800213C2001F0FBF840F68B
:103D60000A213D2001F0F6F8322002F0E1FB0021AB
:103D7000502001F0EFF8EF21512001F0EBF8002185
:103D8000522001F0E7F85946532001F0E3F831469C
:103D90004FE10021084601F0DDF82146012001F045
:103DA000D9F84146022001F0D5F841F23001032054
:103DB00001F0D0F80021042001F0CCF85146082091
:103DC00001F0C8F80021092001F0C4F800210A2000
:103DD00001F0C0F801210C2001F0BCF800210D20F9
:103DE00001F0B8F800210F2001F0B4F8322002F001
:103DF0009FFB40F20111072001F0ACF8322002F0E5
:103E000097FB4FF48651102001F0A4F807211120F0
:103E100001F0A0F83146122001F09CF84FF4306117
:103E2000132001F097F80021292001F093F844F2C3
:103E300010012B2001F08EF80021502001F08AF8AB
:103E4000EF21512001F086F80021522001F082F884
:103E50005946532001F07EF83946602001F07AF887
:103E60000121612001F076F8002101E0008040424C
:103E70006A2001F06FF80021802001F06BF800212A
:103E8000812001F067F80021822001F063F8002111
:103E9000832001F05FF80021842001F05BF800210D
:103EA000852001F057F81021902001F053F80021EF
:103EB000922001F04FF80121932001F04BF8314698
:103EC000952001F047F80021972001F043F80021E8
:103ED000982001F03FF840F2731107207DE341F292
:103EE0001401E72001F036F82146012001F032F8F4
:103EF0004FF40071022001F02DF841F23801032047
:103F000001F028F85146082001F024F8002109208A
:103F100001F020F800210A2001F01CF800210C20FB
:103F200001F018F800210D2001F014F800210F20F5
:103F300001F010F80021102001F00CF807211120E9
:103F400001F008F80021122001F004F800211320EC
:103F500001F000F8C82002F0EBFA41F29061102065
:103F600000F0F8FF40F22721112000F0F3FF32208B
:103F700002F0DEFA0C21122000F0ECFF322002F0F9
:103F8000D7FA4FF40061132000F0E4FF112129203B
:103F900000F0E0FF0B212B2000F0DCFF322002F0CC
:103FA000C7FA0021202000F0D5FF5B4659462120AA
:103FB00000F0D0FF0021302000F0CCFF4FF48374DC
:103FC0002146312000F0C6FF0021322000F0C2FF60
:103FD0004FF40171352000F0BDFF41F20A61362037
:103FE00000F0B8FF2946372000F0B4FF2146382002
:103FF00000F0B0FF2946392000F0ACFF40F202414A
:104000003C2000F0A7FF40F60F413D2000F0A2FF4A
:104010000021502000F09EFFEF21512000F09AFF78
:104020000021522000F096FF1946532000F092FF25
:104030003946602000F08EFF0121612000F08AFFE8
:1040400000216A2000F086FF0021802000F082FF1E
:104050000021812000F07EFF0021822000F07AFF05
:104060000021832000F076FF0021842000F072FF01
:104070000021852000F06EFF1021902000F06AFFE3
:104080004FF4C0619220FCE32146012000F062FF62
:104090004146022000F05EFF41F23001032000F0B3
:1040A00059FF0021042000F055FF40F207210820AD
:1040B00000F050FF0021092000F04CFF00210A20F1
:1040C00000F048FF00210C2000F044FF00210D20EB
:1040D00000F040FF00210F2000F03CFF142002F010
:1040E00027FA41F2B061102000F034FF01211120C5
:1040F00000F030FF0121172000F02CFF4FF49C71DD
:10410000122000F027FF4FF40061132000F022FF7F
:104110000921292000F01EFF09212A2000F01AFFA2
:104120000021A42000F016FF0021502000F012FF13
:10413000EF21512000F00EFF0021522000F00AFF75
:104140005946532000F006FF3946602000F002FF78
:104150000121612000F0FEFE00216A2000F0FAFE3D
:104160000021802000F0F6FE0021812000F0F2FE08
:104170000021822000F0EEFE0021832000F0EAFE04
:104180000021842000F0E6FE002100E01DE08520F3
:1041900000F0E0FE1321902000F0DCFE00219220D0
:1041A00000F0D8FE0321932000F0D4FE3146952084
:1041B00000F0D0FE40F27311072000F0CBFE322059
:1041C0000BE10EE10AE2D0E285E30021072000F0D6
:1041D000C1FE322002F0ACF94FF48E71122000F0D3
:1041E000B9FE0121A42000F0B5FE0F21082000F047
:1041F000B1FE08210A2000F0ADFE08210D2000F0DC
:10420000A9FE2B462946302000F0A4FE07213120CC
:1042100000F0A0FE40F20361322000F09BFE454614
:104220004146332000F096FE5146342000F092FEC5
:104230000221352000F08EFE41F60F71362000F08D
:1042400089FE1946372000F085FE0021382000F055
:1042500081FE0021392000F07DFE19463A2000F051
:1042600079FE00213B2000F075FE07213C2000F084
:1042700071FE00213D2000F06DFE322002F058F961
:104280000121072000F066FE0121172000F062FEE8
:10429000322002F04DF94FF4BD51102000F05AFECB
:1042A00040F21721112000F055FE4FF48F711220BB
:1042B00000F050FE4FF47061132000F04BFE00211F
:1042C0002A2000F047FE0A21292000F043FE4FF487
:1042D0009F71122000F03EFE0021502000F03AFEB7
:1042E000EF21512000F036FE0021522000F032FE76
:1042F0005946532000F02EFE3946602000F02AFE79
:104300000121612000F026FE00216A2000F022FE3B
:104310000021802000F01EFE0021812000F01AFE06
:104320000021822000F016FE0021832000F012FE02
:104330000021842000F00EFE0021852000F00AFEFE
:104340001321902000F006FE3146922000F002FE7C
:104350000521932000F0FEFD0021952000F0FAFDDC
:104360000021972000F0F6FD0021982000F0F2FDDA
:104370002146012000F0EEFD2946022000F0EAFD72
:1043800041F23801032000F0E5FD0021042000F097
:10439000E1FD00210C2000F0DDFD00210F2000F0E8
:1043A000D9FD0021202000F0D5FD0021212000F0C2
:1043B000D1FD2121072000F0CDFD142002F0B8F836
:1043C0006121072000F0C6FD142002F0B1F840F290
:1043D0007311072000F0BEFD142002F0A9F8FFF7CA
:1043E00044BB0021084600F0B5FD0021084600F05E
:1043F000B1FD0021084600F0ADFD0021084600F0A7
:10440000A9FD0121A42000F0A5FD142002F090F8E0
:104410003D463946602000E0DBE000F09BFD56465B
:104420005146082000F096FD4FF40571302000F051
:1044300091FD43F21571312000F08CFD40F20461D2
:10444000322000F087FD40F61661332000F082FD37
:1044500042F21121342000F07DFD4FF4A8513520A7
:1044600000F078FD48F20751362000F073FD41F26C
:104470000741372000F06EFD41F20341382000F083
:1044800069FD2021392000F065FD1A21902000F0FF
:1044900061FD0021102000F05DFD0721112000F0DA
:1044A00059FD0021122000F055FD0021132000F0DD
:1044B00051FD142002F03CF84FF4E661102000F0AA
:1044C00049FD40F23711112000F044FD142002F0A4
:1044D0002FF84FF4DC71122000F03CFD142002F0A4
:1044E00027F84FF47061132000F034FD80212A205A
:1044F00000F030FD4821292000F02CFD142002F0AE
:1045000017F82146012000F025FD4146022000F069
:1045100021FD41F23801032000F01CFD3146082046
:1045200000F018FD00210A2000F014FD00210C20ED
:1045300000F010FD00210D2000F00CFD30210E20B8
:1045400000F008FD0021502000F004FDEF21512073
:1045500000F000FD0021522000F0FCFC59465320E1
:1045600000F0F8FC2946602000F0F4FC01216120F5
:1045700000F0F0FC00216A2000F0ECFC11219020FA
:1045800000F0E8FC4FF4C061922000F0E3FC40F240
:104590000241932000F0DEFC0221942000F0DAFCBE
:1045A000142001F0C5FF0121072000F0D3FC1420E6
:1045B00001F0BEFF6121072000F0CCFC40F2731136
:1045C000072000F0C7FC0021202000F0C3FC0021E0
:1045D000212000F0BFFC2221002079E100210846C3
:1045E00000F0B8FC0021084600F0B4FC142001F0F3
:1045F0009FFF0021084600F0ADFC0021084600F0B6
:10460000A9FC0021084600F0A5FC0021084600F0A6
:10461000A1FC0121A42000F09DFC142001F088FFE2
:104620003946602000F096FC40F60601082000F0B4
:1046300091FC40F203731946302000F08BFC0121FD
:10464000312000F087FC0421322000F083FC4FF47D
:104650008171332000F07EFC3146342000F07AFC7A
:1046600040F20311352000F075FC1F21362000F0C8
:1046700071FC1946372000F06DFC0121382000F054
:1046800069FC0421392000F065FC1521902000F020
:1046900061FC4FF48261102000F05CFC40F2472185
:1046A000112000F057FC4FF4DE71122000F052FC94
:1046B0004FF46061132000F04DFC782001F038FFCA
:1046C0002146012000F046FC4FF40071022000F06A
:1046D00041FC41F23001032000F03CFC08210A209B
:1046E00000F038FC00210C2000F034FC20210E20CA
:1046F00000F030FC00210F2000F02CFC00212020D5
:1047000000F028FC0021212000F024FC3D212A207B
:1047100000F020FC142001F00BFF2D21292000F0D7
:1047200019FC0021502000F015FC4DF2EF01512042
:1047300000F010FC0021522000F00CFC59465320E0
:1047400000F008FC0021612000F004FC00216A2038
:1047500000F000FC3146922000F0FCFB0521932084
:1047600000F0F8FB2146FFF7B8BB0121002000F064
:10477000F1FB0A2001F0DCFE41F22861102000F07C
:10478000E9FB0E21122000F0E5FB40F63921132051
:1047900000F0E0FB0A2001F0CBFE4021112000F0E8
:1047A000D9FB5021152000F0D5FB0A2001F0C0FEF6
:1047B0001E21122000F0CEFB0A2001F0B9FE4FF4BA
:1047C000B151102000F0C6FB42F63921132000F051
:1047D000C1FB0A2001F0ACFE2146012000F0BAFB2B
:1047E0003146022000F0B6FB41F23801032000F010
:1047F000B1FB5146082000F0ADFB08210A2000F073
:10480000A9FB0021302000F0A5FB40F2024131203D
:1048100000F0A0FB4FF48371322000F09BFB40F2CC
:104820000351332000F096FB4FF48271342000F0E6
:1048300091FB40F20131352000F08CFB29463620F7
:1048400000F088FB40F20531372000F083FB4FF485
:104850000271382000F07EFB40F60B71392000F029
:1048600079FB0221412000F075FB3946602000F001
:1048700071FB0121612000F06DFB4FF40471902069
:1048800000E0CAE000F066FB4FF48571922000F072
:1048900061FB0421932000F05DFB2146A02000F085
:1048A00059FB0121072000F055FB2121072000F0D2
:1048B00051FB2321072000F04DFB3321072000F09E
:1048C00049FB40F23311072000F044FB0021A020F7
:1048D00000F040FB83E53021152000F03BFB102168
:1048E0009A2000F037FB2021112000F033FB43F227
:1048F0002841102000F02EFB0221122000F02AFB9C
:1049000041F23801132000F025FB282001F010FEB1
:104910001221084600F01EFB282001F009FE43F298
:104920002041102000F016FB43F23801132000F064
:1049300011FB462001F0FCFD0021302000F00AFBB5
:1049400040F20241312000F005FB40F207313220F5
:1049500000F000FB4FF44171332000F0FBFA04211A
:10496000342000F0F7FA40F20141352000F0F2FA6D
:104970002946362000F0EEFA40F20531372000F0EB
:10498000E9FA4FF4C2631946382000F0E3FA1946F9
:10499000392000F0DFFA2146012000F0DBFA314631
:1049A000022000F0D7FA41F23001032000F0D2FAE1
:1049B00040F60801082000F0CDFA08210A2000F096
:1049C000C9FA3946602000F0C5FA0121612000F0E3
:1049D000C1FA4FF49F71902000F0BCFA214692205A
:1049E00000F0B8FA2146932000F0B4FA4FF4405199
:1049F000A02000F0AFFA1021A32000F0ABFA0121B3
:104A0000072000F0A7FA2121072000F0A3FA2321B4
:104A1000072000F09FFA3321072000F09BFA40F2B4
:104A20003311A0E608B54FF0D840B0F88000ADF8DB
:104A30000000BDF8000008BD10B500F075FA0520B3
:104A400001F092FDBDE81040FFF7ECBF10B5024643
:104A5000BE2000F069FA052000F05AFA104603F073
:104A60009CFF9FED0C1B53EC112B03F0A9FF03F0EF
:104A700067FF80B200F04CFA012000F049FAFF20F5
:104A800000F046FA002000F043FABDE81040002094
:104A900000F03EBA6666666666660440F0B57F4D15
:104AA00000232946AA79898846F6040741F663144B
:104AB000012A01D02AB11DE0B9421BD0A14202D186
:104AC00018E0A14216D1082814D2DFE800F004064D
:104AD000080A0C0E101206200CE007200AE0042041
:104AE00008E0052006E0012004E0002002E00320A9
:104AF00000E00220A1F5134C45F2103245F21056A9
:104B0000BCF1410C07D0B94205D0914203D0B1426B
:104B100001D0A1427BD1082812D2DFE800F01104B5
:104B200006080A0C0E1080230AE0402308E0C02388
:104B300006E0202304E0602302E0A02300E0E0235D
:104B4000B14202D14FF4585000E03620914205D0D6
:104B5000B14203D0A14201D043F00803B94201D1D0
:104B600043F00203194600F0F5F9AA88A2420AD0E0
:104B700098062888698802D5884202D303E08842D3
:104B800001D9298068806889B24241D100F0CCF90E
:104B9000002000F0BDF96889401C80B200F0C4F923
:104BA000002000F0B5F96889801C80B200F0BCF9E3
:104BB0002888401EC0F30F2000F0AAF96889C01CA5
:104BC00080B200F0B1F92878401EC0B200F0A0F920
:104BD000A88900F0A9F9002000F09AF9A889401CE2
:104BE00080B200F0A1F9002000F092F9A889801CA1
:104BF00080B200F099F96888401EC0F30F2000F0E1
:104C000087F9A889C01C80B200F08EF922E028E064
:104C100000F08AF9002000F07BF9002000F078F91C
:104C20002888401EC0F30F2000F072F92878401E3B
:104C3000C0B200F06DF9A88900F076F9002000F00C
:104C400067F9002000F064F96888401EC0F30F2067
:104C500000F05EF9A878BDE8F040401EC0B200F058
:104C600057B9082812D2DFE800F0040608110A0C30
:104C70000E1030230AE0102308E0202306E038233A
:104C800004E0282302E0182300E00823BDE8F040F8
:104C9000032043F4805100F05DB9000080620020E1
:104CA0002DE9F043DFF844810C460246050AB8F8C6
:104CB00004104046A1F5134340894FEA1429413BB3
:104CC00017D0A1F5A643103B13D04646A1F5D04717
:104CD000B3793688B61A761E043F0ED0A1F5C857B0
:104CE000633F1ED0A1F5AA47103F57D0012B72D0C9
:104CF00072E000F019F9284605E0012B00D1B2B2AC
:104D000000F012F9100A00F003F9D0B200F000F937
:104D1000B8F80C0000F008F9484600F0F9F8E0B2E5
:104D20002AE06BB300F000F9284600F0F1F8D0B2A9
:104D300000F0EEF8B8F80000401EC0F30F2000F0BD
:104D4000E7F898F80000401EC0B200F0E1F8B8F8AB
:104D50000C0000F0E9F8484600F0DAF8E0B200F0A4
:104D6000D7F8B8F80200401EC0F30F2000F0D0F8CA
:104D700098F80200401EC0B2BDE8F04300F0C8B889
:104D8000B2B200F0D1F8002000F0C2F8002000F02C
:104D9000BFF8100A00F0BCF8D0B2D6E700F0C4F8B3
:104DA000284600F0B5F8B8F80A00401C80B200F0C0
:104DB000BBF8D0B200F0ACF8B8F80C0000F0B4F8D2
:104DC000484600F0A5F8B8F80C00401C80B200F08E
:104DD000ABF8A4E7FFE7B2B2114600F0BBF8B8F8B1
:104DE0000C002146BDE8F04300F0B4B8806200201A
:104DF0002DE9F84F82461F460C468B46580700D0D7
:104E0000012000EBD700790810FB01F0203AC0B276
:104E100002F0FF090026009041E00C2F10D0102F67
:104E200012D0182F3ED1204909EBC90001EB8000B8
:104E30004FF00008855D28060AD51C4802880BE063
:104E400009EB49001A49F1E71A4901EB0910EFE7AC
:104E50000A9828B91548428821465046FCF7DCF9E3
:104E60006806050E1448641CA4B24088A04219D9F3
:104E7000A4EB0B00B84209D10AF101001FFA80FA35
:104E80000D485C46018851450CD906E008F1010047
:104E900000F0FF08B8F1080FCDD3761CF6B20098E9
:104EA0008642BAD3BDE8F88F2F960008C4000020D0
:104EB000CB8B00083F900008806200202DE9F84F5E
:104EC000044600F0FF0810190D46DDE90A761FFAC6
:104ED00080FA58191FFA80F94FF0000B11E0544581
:104EE00002D3E819444685B24D450FD23B462946C8
:104EF0002046CDF800B0FFF77BFF04EB570084B2EB
:104F0000761C3278A2F120005E28E8D9BDE8F88F3F
:104F100001B5BDF80000ADF80000BDF800004FF08D
:104F2000D841A1F8800008BD01B5BDF80000ADF87A
:104F30000000BDF800004FF0D841A1F87E0008BD88
:104F400003484FF0D8410089A1F87E007047000067
:104F5000806200204FF0D84222F87E0F51807047C7
:104F60007CB50121202000F079F801208DF80400A3
:104F700000228DF8062003218DF80510074D4FF40F
:104F8000C0648DF80700009469462846FCF702F8D3
:104F900021462846FCF74AF87CBD00000014024078
:104FA00010B5034604E011F8014B03F8014B521E03
:104FB000002AF8D110BD0346C9B202E003F8011B74
:104FC000521E002AFADC7047FEE7704730B50F2307
:104FD000C27801780125FAB1144A126801F1E02182
:104FE00002F4E062C2F5E062C2F30722C2F10404F7
:104FF000D3404278A24084781C401443220181F8B7
:105000000024007800F01F018D404009800000F16D
:10501000E020C0F8005130BD01F01F008540480974
:10502000800000F1E020C0F8805130BD0CED00E0C0
:105030000249084302490860704700000000FA0571
:105040000CED00E030B50023044604E0CD5C5B1CB1
:1050500004F8015BDBB29342F8D130BD044A002969
:10506000116801D0014300E08143116070470000E6
:1050700030380240044A0029116801D0014300E0A1
:10508000814311607047000038380240044A00290B
:10509000116801D0014300E08143116070470000B6
:1050A0004038024070B5204B1968204C11F00C01BB
:1050B00004D06610042903D0082903D004601BE043
:1050C000066019E0184A121F1168C1F38055116873
:1050D00001F03F0115B1B6FBF1F101E0B4FBF1F1D4
:1050E00014681268C4F388146143C2F30142521C6D
:1050F0005200B1FBF2F1016019680F2202EA1111AE
:105100000B4A545C0168E14041601C68072505EAD0
:105110009424145D21FA04F484601B6805EA533377
:10512000D25CD140C16070BD083802400024F40058
:105130004000002001E0934206D110F9013B11F933
:10514000012B0BB1002AF6D1981A40B270470346E2
:1051500011F8012B00F8012B002AF9D118467047ED
:1051600010B5002203E09C4208D1521CD2B210F9C3
:10517000014B11F9013B0CB1002BF4D1104610BDCD
:10518000024600E0401C017819B13C2901D05B299E
:10519000F8D1801AC0B2704708E09A4206D05B2A64
:1051A0000ED03C2A0CD0D01A40B2704710F9012B17
:1051B00011F9013B12B1002BEFD1F0E7202BEED11A
:1051C00000207047034600200A78002A09D05B2A95
:1051D00007D03C2A05D0401C03F8012BC0B2491C63
:1051E000F2E7704710B5044606E0521E11F8013B85
:1051F000D2B200F8013B3BB1002AF6D107E0521EC3
:10520000D2B200F8011B00E00021002AF7D12046AD
:1052100010BD10B54FF0FF340FE093420DD05B2B63
:1052200001D03C2B18D1202A16D0491E01E011F9DB
:10523000012BB2B1202AFAD115E010F9013B11F986
:10524000012B13B1002AE8D109E03AB1202A0AD093
:105250005B2B04D03C2B02D0204610BD0BB10020AC
:1052600010BD012010BD022010BD10B54FF0FF345D
:1052700013E0934211D05B2B01D03C2B1CD1202A90
:105280001AD0491E01E011F8012BA2F12B000E28C3
:10529000F9D9B2B1202A16D00EE010F8013B11F86E
:1052A000012B13B1002AE4D109E03AB1202A0AD037
:1052B0003C2B04D05B2B02D0204610BD0BB100204C
:1052C00010BD012010BD022010BD30B500231A46CC
:1052D0004CB202E0521C52B2401C0178202901D18C
:1052E000D907F7D0002C07DC12E0222901D15B1C82
:1052F000DBB2521C52B2401C0178202901D0002997
:10530000F3D1DD0701D00029EFD1641E64B2E4E7D8
:10531000104630BD30B585B0050018D001242946AF
:105320000EA0FFF707FFA8B1641CE4B2012CF6D968
:10533000112200216846FFF73EFE11220949684606
:10534000FFF780FE29466846FFF7F4FE20B10020F3
:1053500005B030BD2046FBE70920F9E761646D69BF
:105360006E00000055A600080CB5002227490092E7
:105370000192086840F4803008604FF4A043086848
:1053800000F4003001900098401C0090019810B982
:1053900000989842F3D10868800334D50120019029
:1053A0001A484030026842F0805202601848026891
:1053B00042F4404202601548083002680260026808
:1053C00042F400420260026842F4A0520260031FED
:1053D000104A1A600A6842F080720A600A689201F4
:1053E000FCD50D4940F205720A60016821F0030105
:1053F0000160016841F0020101600168C1F38101AF
:105400000229FAD10CBD01920CBD00000038024007
:105410000070004008544007003C02404FF0E0217B
:105420000428086903D020F004000861704740F0A8
:105430000400FAE710B503F027F8012803D0BDE80F
:10544000104002F003BD10BD124810B5016841F4D0
:10545000700101601048016841F0010101600E4ACD
:1054600000210832116002680C4B1A400260031DD3
:105470000B4A1A60026822F48022026006480C304F
:105480000160FFF771FF03494FF000608039086049
:1054900010BD000088ED00E000380240FFFFF6FE7E
:1054A0001030002410B5054C0121204600F043F8CF
:1054B0002046BDE81040012100F030B80004004053
:1054C0007FB50D46044601210220FFF7DFFD0021D4
:1054D0000194ADF80050104CADF80210ADF8081072
:1054E0006946204600F03CF801221146204600F0B3
:1054F0002EF80121204600F014F81D208DF80C0034
:1055000001208DF80D0003218DF80E108DF80F008D
:1055100003A8FFF75BFD7FBD00040040C943018283
:1055200070470029018802D041F0010101E021F01B
:1055300001010180704702460020138A92890B42C4
:1055400002EA010202D0002A00D001207047002A9E
:10555000828901D00A4300E08A43828170470000BB
:1055600030B50288164C174DA0420DD0A8420BD082
:10557000B0F1804F08D0144B984205D0134B98429D
:1055800002D0134B984203D122F070034A881A4389
:10559000104B984206D0104B984203D022F440732F
:1055A0000A891A4302804A68C2620A880285A042B8
:1055B00001D0A84201D1897A01860121818230BDC2
:1055C00000000140000401400004004000080040C9
:1055D000000C0040001000400014004010B50E4CBC
:1055E00040F22551204600F07FF8002812D02046D6
:1055F00000F008F909490A88094B98540888401CAA
:1056000080B20880B0F5966F01D30020088005496C
:10561000F020087010BD00000010014018000020AC
:1056200024010020C900002010B50E4C40F2255185
:10563000204600F059F8002812D0204600F0E2F889
:1056400009494B88094A98544888401C80B24880D0
:10565000B0F5966F01D3002048800549F02008700E
:1056600010BD00000044004018000020D4050020B8
:10567000C900002010B50E4C40F22551204600F024
:1056800033F8002812D0204600F0BCF809498B8876
:10569000094A98548888401C80B28880B0F5966F7B
:1056A00001D3002088800549F020087010BD00005B
:1056B0000048004018000020840A0020C900002093
:1056C000C943018070470029818902D041F400510B
:1056D00001E021F4005181817047024600201288C8
:1056E0000A4200D00120704770B501F01F05012665
:1056F0000024C1F3421306FA05F2012B0FD0022B4E
:105700000FD0838A4FEA11210088134206FA01F66E
:1057100000EA060001D000B10124204670BD838953
:10572000F0E7038AEEE710B5C1F3421301F01F045E
:105730000121A140012B07D0022B07D01430002AF1
:10574000026805D00A4304E00C30F8E71030F6E7B1
:105750008A43026010BD00007FB50446008A0D46F2
:10576000C98820F4405001432182A08941F20C6194
:105770008843A9882A8911436A8902431143A18178
:10578000A08A20F44071A8890843A0826846FFF7E8
:1057900089FC1A48844202D01948844201D10398F6
:1057A00000E00298A189090400EBC00101EB0010A0
:1057B000296801D5490000E08900B0FBF1F06422BE
:1057C000B0FBF2F109010B096FF018056B4300EB18
:1057D0008300A3891D044FF0320306D503EBC000FC
:1057E000B0FBF2F000F0070005E003EB0010B0FBA7
:1057F000F2F000F00F00084320817FBD001001404F
:10580000001401408088C0F308007047C1F308010C
:105810008180704708B51B208DF800005B208DF853
:1058200001004B208DF8020000208DF8030068462F
:1058300001F090FE08BD00000EB509220021684667
:10584000FFF7B9FB092204496846FFF7FBFB6846EE
:1058500001F080FE0EBD000078A6000810B50E48CD
:1058600001F078FE0C48503001F074FE0A48A03078
:1058700001F070FE0848F03001F06CFE074801F0BE
:1058800069FE0648503001F065FE0448BDE810404E
:10589000A03001F05FBE0000F4A7000834A90008A2
:1058A0001CB500281BD01B218DF800105B218DF842
:1058B00001100A21B0FBF1F230328DF80220B0FB6A
:1058C000F1F201FB120030308DF8030044208DF816
:1058D000040000208DF80500684601F03BFE1CBD69
:1058E0001CB5002811D01B218DF800105B218DF80C
:1058F000011030308DF8020043208DF803000020A5
:105900008DF80400684601F025FE1CBD70B50D46FB
:10591000040008D004E014F8011B022000F0F8F89D
:105920006D1EEDB2F7D270BD2DE9F04164253F4EFA
:1059300000217056401C04D07056FF227254BDE8FE
:10594000F081491C89B20229F3D3022000F0B8F893
:1059500040B2411CF9D01B28F1D100240AE00A20F2
:1059600000F080FF022000F0ABF840B2411C04D1EF
:10597000641CA4B2AC42F2D331B34F2803D05B28ED
:1059800001D0307020E0074600240AE00A2000F031
:1059900069FF022000F094F840B2411C04D1641C5D
:1059A000A4B2AC42F2D379B14F2F26D05B2FC6D12F
:1059B000A0F140010C291ED2DFE801F01A080B0EFD
:1059C000111D1D1D141D1D171B20B8E76FF035009C
:1059D000B5E76FF03400B2E76FF03600AFE76FF075
:1059E0003700ACE76FF02F00A9E76FF02E00A6E7B5
:1059F0006FF02D00A3E75B2108E0502809D0512863
:105A00000AD052280BD053280CD04F21317070701F
:105A1000DAE76FF0330092E76FF032008FE76FF054
:105A200031008CE76FF0300089E70000DD000020D6
:105A30002DE9F84390460D460646024600212846C9
:105A4000FFF7B9FA2C464FF0FF3976B3002765B35C
:105A50002E44FFF769FFC0B28DF800000D2825D055
:105A60000A2000F0FFFE9DF80000082810D0A0F1E9
:105A700020015F29EDD8A642EBD004F8010BB8F164
:105A8000000F27700CD02A21022000F041F8E0E737
:105A9000AC42DED004F8017D08A001F05BFDD8E740
:105AA00001216846FFF732FFD3E704E0287810B100
:105AB0000020BDE8F8834846FBE700000820080006
:105AC000114A10B532F81010931F33F81030994274
:105AD00002D14FF4004010BD32F81030C0EB00117D
